:020000040800F2
:10000000600600206D0100087501000877010008F6
:10001000790100087B0100087D0100080000000054
:100020000000000000000000000000007F01000848
:10003000810100080000000083010008850100081C
:100040008701000887010008870100088701000870
:100050008701000887010008870100088701000860
:100060008701000887010008870100088701000850
:100070008701000887010008870100088701000840
:100080008701000887010008870100088701000830
:100090008701000887010008870100088701000820
:1000A0008701000887010008870100088701000810
:1000B0008701000887010008870100088701000800
:1000C00087010008870100088701000887010008F0
:1000D00087010008870100088701000887010008E0
:1000E00087010008870100088701000800F002F876
:1000F00000F02CF80AA090E8000C82448344AAF196
:100100000107DA4501D100F021F8AFF2090EBAE893
:100110000F0013F0010F18BFFB1A43F0010318473B
:1001200094040000A40400000023002400250026FD
:10013000103A28BF78C1FBD8520728BF30C148BF4A
:100140000B6070471FB51FBD10B510BD00F031F832
:100150001146FFF7F7FF00F0EFF900F04FF803B496
:10016000FFF7F2FF03BC00F057F800000948804792
:1001700009480047FEE7FEE7FEE7FEE7FEE7FEE789
:10018000FEE7FEE7FEE7FEE704480549054A064BA1
:100190007047000031040008ED00000860000020F6
:1001A0006006002060020020600200207047704757
:1001B0007047754600F02CF8AE4605006946534678
:1001C00020F00700854618B020B5FFF7DDFFBDE839
:1001D00020404FF000064FF000074FF000084FF0AE
:1001E000000BAC46ACE8C009ACE8C009ACE8C009FB
:1001F000ACE8C00921F007018D46704710B50446F0
:10020000AFF300802046BDE81040FFF7A8BF000014
:10021000004870470000002001491820ABBEFEE7EF
:10022000260002007047000082B08DF807009DF89C
:10023000070001460091102836D80099DFE801F048
:1002400009341034193434342234343434343434EA
:100250002B0041F20401C4F202010868086023E0A7
:1002600041F20401C4F20201086840F480600860B1
:100270001AE041F20401C4F20201086840F4A060EF
:10028000086011E041F20401C4F20201086840F480
:10029000C060086008E041F20401C4F2020108688D
:1002A00040F4E0600860FFE702B0704780B500F0FE
:1002B00001F880BD84B000200390029041F200015B
:1002C000C4F20201086840F480300860FFE741F2A0
:1002D0000000C4F20200006800F4003002900398AD
:1002E00001300390FFE702990020019039B9FFE740
:1002F0000398B0F5A06018BF01200190FFE70198B6
:10030000C0070028E3D1FFE741F20000C4F2020079
:1003100000688003002803D5FFE70120029002E077
:1003200000200290FFE70298012851D1FFE742F236
:100330000001C4F20201086840F01000086008687B
:1003400020F007000860086840F00200086041F2F1
:100350000401C4F20201009108680860086808609E
:10036000086840F480600860086820F47C10086029
:10037000086840F4E810086041F20001C4F202018C
:10038000086840F080700860FFE741F20000C4F2A6
:10039000020000688001002801D4FFE7F5E741F280
:1003A0000401C4F20201086820F003000860086834
:1003B00040F002000860FFE741F20400C4F20200CE
:1003C000006800F00C00082801D0FFE7F4E700E027
:1003D000FFE704B07047000041F20001C4F20201DF
:1003E000086840F480300860FFE741F20000C4F282
:1003F000020000688003002801D4FFE7F5E741F21E
:100400000401C4F20201086820F4003008600868A2
:1004100040F480300860086840F4E0100860086824
:1004200040F001000860086820F0F00008607047A4
:1004300080B541F20002C4F20202106840F00100EF
:10044000106041F20401C4F2020108680023CFF6F3
:10045000FF031840086010684FF6FF73CFF6F6638D
:1004600018401060106820F480201060086820F4A4
:10047000FE00086041F20801C4F202014FF41F00BF
:100480000860FFF713FF4EF60851CEF200014FF05F
:100490000060086080BD000041F21C01C4F202014E
:1004A000086840F00400086040F62801C4F200012A
:1004B0001120088040F62C01C4F200014FF6FF70B5
:1004C000088040F62401C4F200010020088040F6B4
:1004D0000001C4F20001088840F001000880704764
:1004E00080B582B0019000200090FFE7009801994C
:1004F000884209D2FFE74FF47A7000F007F8FFE76F
:10050000009801300090F1E702B080BD81B000900A
:1005100040F62401C4F2000100200880FFE740F605
:100520002400C4F2000000880099884201D2FFE74D
:10053000F5E701B07047000080B584B0002002905C
:100540000390FFF749FF0820FFF76EFE029841F283
:100550001802C4F20202116841F00501116040F670
:100560000002C4F20102116821F0F001116011686B
:1005700041F02001116040F60C01C4F20101086055
:10058000FFF78AFFFFE740F60C01C4F2010100917A
:10059000086840F0020008604FF4FA700190FFF71D
:1005A0009FFF009A0198116821F002011160FFF786
:1005B00097FFE8E7C405000800000020600600007F
:0405C0002801000806
:040000050800016D81
:00000001FF
